{
  "contractName": "RequestLib",
  "abi": [
    {
      "constant": true,
      "inputs": [
        {
          "name": "self",
          "type": "RequestLib.Request storage"
        }
      ],
      "name": "requiredExecutionGas",
      "outputs": [
        {
          "name": "",
          "type": "uint256"
        }
      ],
      "payable": false,
      "stateMutability": "view",
      "type": "function"
    },
    {
      "constant": true,
      "inputs": [],
      "name": "EXECUTE_EXTRA_GAS",
      "outputs": [
        {
          "name": "",
          "type": "uint256"
        }
      ],
      "payable": false,
      "stateMutability": "pure",
      "type": "function"
    },
    {
      "constant": false,
      "inputs": [
        {
          "name": "self",
          "type": "RequestLib.Request storage"
        },
        {
          "name": "addressArgs",
          "type": "address[4]"
        },
        {
          "name": "uintArgs",
          "type": "uint256[11]"
        },
        {
          "name": "callData",
          "type": "bytes"
        }
      ],
      "name": "initialize",
      "outputs": [
        {
          "name": "initialized",
          "type": "bool"
        }
      ],
      "payable": false,
      "stateMutability": "nonpayable",
      "type": "function"
    },
    {
      "constant": false,
      "inputs": [
        {
          "name": "self",
          "type": "RequestLib.Request storage"
        }
      ],
      "name": "cancel",
      "outputs": [
        {
          "name": "",
          "type": "bool"
        }
      ],
      "payable": false,
      "stateMutability": "nonpayable",
      "type": "function"
    },
    {
      "constant": false,
      "inputs": [
        {
          "name": "self",
          "type": "RequestLib.Request storage"
        }
      ],
      "name": "sendPayment",
      "outputs": [
        {
          "name": "",
          "type": "bool"
        }
      ],
      "payable": false,
      "stateMutability": "nonpayable",
      "type": "function"
    },
    {
      "constant": true,
      "inputs": [],
      "name": "EXECUTION_GAS_OVERHEAD",
      "outputs": [
        {
          "name": "",
          "type": "uint256"
        }
      ],
      "payable": false,
      "stateMutability": "pure",
      "type": "function"
    },
    {
      "constant": false,
      "inputs": [
        {
          "name": "self",
          "type": "RequestLib.Request storage"
        }
      ],
      "name": "refundClaimDeposit",
      "outputs": [],
      "payable": false,
      "stateMutability": "nonpayable",
      "type": "function"
    },
    {
      "constant": false,
      "inputs": [
        {
          "name": "self",
          "type": "RequestLib.Request storage"
        }
      ],
      "name": "sendDonation",
      "outputs": [
        {
          "name": "",
          "type": "bool"
        }
      ],
      "payable": false,
      "stateMutability": "nonpayable",
      "type": "function"
    },
    {
      "constant": true,
      "inputs": [],
      "name": "CANCEL_EXTRA_GAS",
      "outputs": [
        {
          "name": "",
          "type": "uint256"
        }
      ],
      "payable": false,
      "stateMutability": "pure",
      "type": "function"
    },
    {
      "constant": true,
      "inputs": [],
      "name": "PRE_EXECUTION_GAS",
      "outputs": [
        {
          "name": "",
          "type": "uint256"
        }
      ],
      "payable": false,
      "stateMutability": "pure",
      "type": "function"
    },
    {
      "constant": true,
      "inputs": [
        {
          "name": "addressArgs",
          "type": "address[4]"
        },
        {
          "name": "uintArgs",
          "type": "uint256[11]"
        },
        {
          "name": "callData",
          "type": "bytes"
        },
        {
          "name": "endowment",
          "type": "uint256"
        }
      ],
      "name": "validate",
      "outputs": [
        {
          "name": "isValid",
          "type": "bool[6]"
        }
      ],
      "payable": false,
      "stateMutability": "view",
      "type": "function"
    },
    {
      "anonymous": false,
      "inputs": [
        {
          "indexed": false,
          "name": "rewardPayment",
          "type": "uint256"
        },
        {
          "indexed": false,
          "name": "measuredGasConsumption",
          "type": "uint256"
        }
      ],
      "name": "Cancelled",
      "type": "event"
    },
    {
      "anonymous": false,
      "inputs": [],
      "name": "Claimed",
      "type": "event"
    },
    {
      "anonymous": false,
      "inputs": [
        {
          "indexed": false,
          "name": "reason",
          "type": "uint8"
        }
      ],
      "name": "Aborted",
      "type": "event"
    },
    {
      "anonymous": false,
      "inputs": [
        {
          "indexed": false,
          "name": "payment",
          "type": "uint256"
        },
        {
          "indexed": false,
          "name": "donation",
          "type": "uint256"
        },
        {
          "indexed": false,
          "name": "measuredGasConsumption",
          "type": "uint256"
        }
      ],
      "name": "Executed",
      "type": "event"
    }
  ],
  "bytecode": "0x6060604052341561000f57600080fd5b6120628061001e6000396000f3006060604052600436106100af576000357c0100000000000000000000000000000000000000000000000000000000900463ffffffff168063067199bc146100b45780631d49e081146100e057806329aa5c65146100fe57806332839d98146101ca5780633cf37899146101fa57806345104b161461022a5780637994549a14610248578063c9b15e0514610260578063d253159014610290578063d96d7ea2146102ae578063dcd5ad91146102cc575b600080fd5b6100ca60048080359060200190919050506103bc565b6040518082815260200191505060405180910390f35b6100e86103e7565b6040518082815260200191505060405180910390f35b6101b06004808035906020019091908060800190600480602002604051908101604052809291908260046020028082843782019150505050509190806101600190600b806020026040519081016040528092919082600b6020028082843782019150505050509190803590602001908201803590602001908080601f016020809104026020016040519081016040528093929190818152602001838380828437820191505050505050919050506103f2565b604051808215151515815260200191505060405180910390f35b6101e0600480803590602001909190505061070b565b604051808215151515815260200191505060405180910390f35b61021060048080359060200190919050506108f0565b604051808215151515815260200191505060405180910390f35b610232610920565b6040518082815260200191505060405180910390f35b61025e600480803590602001909190505061092b565b005b6102766004808035906020019091905050610972565b604051808215151515815260200191505060405180910390f35b6102986109a2565b6040518082815260200191505060405180910390f35b6102b66109ad565b6040518082815260200191505060405180910390f35b61037e6004808060800190600480602002604051908101604052809291908260046020028082843782019150505050509190806101600190600b806020026040519081016040528092919082600b6020028082843782019150505050509190803590602001908201803590602001908080601f016020809104026020016040519081016040528093929190818152602001838380828437820191505050505050919080359060200190919050506109b7565b6040518082600660200280838360005b838110156103a957808201518184015260208101905061038e565b5050505090500191505060405180910390f35b6000806103dc6202bf2084600001600301546111f590919063ffffffff16565b905080915050919050565b600062015f90905090565b60006103fc611ba1565b610404611bdf565b61040c611c09565b610414611c32565b60c060405190810160405280600073ffffffffffffffffffffffffffffffffffffffff16815260200189600060048110151561044c57fe5b602002015173ffffffffffffffffffffffffffffffffffffffff1673ffffffffffffffffffffffffffffffffffffffff16815260200189600160048110151561049157fe5b602002015173ffffffffffffffffffffffffffffffffffffffff1673ffffffffffffffffffffffffffffffffffffffff1681526020018960026004811015156104d657fe5b602002015173ffffffffffffffffffffffffffffffffffffffff1673ffffffffffffffffffffffffffffffffffffffff168152602001600073ffffffffffffffffffffffffffffffffffffffff16815260200189600360048110151561053857fe5b602002015173ffffffffffffffffffffffffffffffffffffffff1673ffffffffffffffffffffffffffffffffffffffff1681525093506060604051908101604052806000151515158152602001600015151515815260200160001515151581525092506101e060405190810160405280600081526020013a8152602001886000600b811015156105c457fe5b6020020151815260200160008152602001886001600b811015156105e457fe5b6020020151815260200160008152602001886002600b8110151561060457fe5b60200201518152602001886003600b8110151561061d57fe5b60200201518152602001886004600b8110151561063657fe5b60200201518152602001886005600b8110151561064f57fe5b60200201518152602001886006600b8110151561066857fe5b60200201518152602001886007600b8110151561068157fe5b60200201518152602001886008600b8110151561069a57fe5b60200201518152602001886009600b811015156106b357fe5b6020020151815260200188600a600b811015156106cc57fe5b60200201518152509150602060405190810160405280600060ff1681525090506106fa89858585858b611216565b506001945050505050949350505050565b6000806000806000805a945061072087611719565b151561072b57600080fd5b60018760050160010160146101000a81548160ff02191690831515021790555061075787600e0161180d565b151561076257600080fd5b8660050160000160009054906101000a900473ffffffffffffffffffffffffffffffffffffffff1673ffffffffffffffffffffffffffffffffffffffff163373ffffffffffffffffffffffffffffffffffffffff161415156108a3573391506107f56107df6064896007016001015461189d90919063ffffffff16565b88600701600301546111f590919063ffffffff16565b905061081f62014c086108115a886118b890919063ffffffff16565b6111f590919063ffffffff16565b9250610846816108383a866118d490919063ffffffff16565b6111f590919063ffffffff16565b905080935060008111156108a257600087600701600301819055508173ffffffffffffffffffffffffffffffffffffffff166108fc829081150290604051600060405180830381858888f1935050505015156108a157600080fd5b5b5b7fa761582a460180d55522f9f5fdc076390a1f48a7a62a8afbd45c1bb797948edb8484604051808381526020018281526020019250505060405180910390a1600195505050505050919050565b60006108fe8260120161190a565b156109165761090f82600701611926565b905061091b565b600090505b919050565b60006202bf20905090565b8060050160010160149054906101000a900460ff168061095357506109528160120161190a565b5b151561095b57fe5b61096781600e0161180d565b151561096f57fe5b50565b60006109808260120161190a565b1561099857610991826007016119ae565b905061099d565b600090505b919050565b600062014c08905090565b60006161a8905090565b6109bf611c5d565b6109c7611c87565b83816000015160200181905250600081606001516000019073ffffffffffffffffffffffffffffffffffffffff16908173ffffffffffffffffffffffffffffffffffffffff1681525050856000600481101515610a2057fe5b602002015181602001516020019073ffffffffffffffffffffffffffffffffffffffff16908173ffffffffffffffffffffffffffffffffffffffff1681525050856001600481101515610a6f57fe5b602002015181602001516000019073ffffffffffffffffffffffffffffffffffffffff16908173ffffffffffffffffffffffffffffffffffffffff1681525050856002600481101515610abe57fe5b6020020151816040015160a0019073ffffffffffffffffffffffffffffffffffffffff16908173ffffffffffffffffffffffffffffffffffffffff16815250506000816040015160a0019073ffffffffffffffffffffffffffffffffffffffff16908173ffffffffffffffffffffffffffffffffffffffff1681525050856003600481101515610b4a57fe5b602002015181600001516000019073ffffffffffffffffffffffffffffffffffffffff16908173ffffffffffffffffffffffffffffffffffffffff16815250506000816020015160400190151590811515815250506000816020015160600190151590811515815250506000816020015160800190151590811515815250506000816060015160200181815250503a81604001516000018181525050846000600b81101515610bf557fe5b602002015181604001516080018181525050846001600b81101515610c1657fe5b6020020151816040015160200181815250506000816040015160c0018181525050600081604001516060018181525050846002600b81101515610c5557fe5b6020020151816080015160a0018181525050846003600b81101515610c7657fe5b602002015181608001516060018181525050846004600b81101515610c9757fe5b60200201518160800151608001818152505073__MathLib_______________________________637ae2b5c7866005600b81101515610cd257fe5b602002015160026000604051602001526040518363ffffffff167c0100000000000000000000000000000000000000000000000000000000028152600401808381526020018281526020019250505060206040518083038186803b1515610d3857600080fd5b6102c65a03f41515610d4957600080fd5b505050604051805190506002811115610d5e57fe5b8160800151600001906002811115610d7257fe5b90816002811115610d7f57fe5b81525050846006600b81101515610d9257fe5b602002015181608001516040018181525050846007600b81101515610db357fe5b602002015181608001516020018181525050846008600b81101515610dd457fe5b602002015181600001516060018181525050846009600b81101515610df557fe5b602002015181600001516040018181525050600081606001516060019060ff16908160ff168152505073__PaymentLib____________________________6327960c5f848360400151602001518460400151608001518560000151606001518660000151604001518760000151608001516202bf206000604051602001526040518863ffffffff167c01000000000000000000000000000000000000000000000000000000000281526004018088815260200187815260200186815260200185815260200184815260200183815260200182815260200197505050505050505060206040518083038186803b1515610eec57600080fd5b6102c65a03f41515610efd57600080fd5b50505060405180519050826000600681101515610f1657fe5b60200201901515908115158152505073__RequestScheduleLib____________________631a26ed1c8260800151608001518360800151604001516000604051602001526040518363ffffffff167c0100000000000000000000000000000000000000000000000000000000028152600401808381526020018281526020019250505060206040518083038186803b1515610fb057600080fd5b6102c65a03f41515610fc157600080fd5b50505060405180519050826001600681101515610fda57fe5b60200201901515908115158152505073__RequestScheduleLib____________________632e898ddc866005600b8110151561101257fe5b60200201516000604051602001526040518263ffffffff167c01000000000000000000000000000000000000000000000000000000000281526004018082815260200191505060206040518083038186803b151561106f57600080fd5b6102c65a03f4151561108057600080fd5b5050506040518051905082600260068110151561109957fe5b60200201901515908115158152505073__RequestScheduleLib____________________633c57ec9c8260800151600001518360800151606001518460800151602001516000604051602001526040518463ffffffff167c01000000000000000000000000000000000000000000000000000000000281526004018084600281111561112157fe5b60ff168152602001838152602001828152602001935050505060206040518083038186803b151561115157600080fd5b6102c65a03f4151561116257600080fd5b5050506040518051905082600360068110151561117b57fe5b60200201901515908115158152505061119f8160000151606001516202bf20611a36565b8260046006811015156111ae57fe5b6020020190151590811515815250506111ce816000015160000151611a4b565b8260056006811015156111dd57fe5b60200201901515908115158152505050949350505050565b600080828401905083811015151561120c57600080fd5b8091505092915050565b600081876000016001019080519060200190611233929190611ce3565b5085600060068110151561124357fe5b602002015187600e0160000160006101000a81548173ffffffffffffffffffffffffffffffffffffffff021916908373ffffffffffffffffffffffffffffffffffffffff16021790555085600160068110151561129c57fe5b60200201518760050160010160006101000a81548173ffffffffffffffffffffffffffffffffffffffff021916908373ffffffffffffffffffffffffffffffffffffffff1602179055508560026006811015156112f557fe5b60200201518760050160000160006101000a81548173ffffffffffffffffffffffffffffffffffffffff021916908373ffffffffffffffffffffffffffffffffffffffff16021790555085600360068110151561134e57fe5b60200201518760070160050160006101000a81548173ffffffffffffffffffffffffffffffffffffffff021916908373ffffffffffffffffffffffffffffffffffffffff1602179055508560046006811015156113a757fe5b60200201518760070160020160006101000a81548173ffffffffffffffffffffffffffffffffffffffff021916908373ffffffffffffffffffffffffffffffffffffffff16021790555085600560068110151561140057fe5b60200201518760000160000160006101000a81548173ffffffffffffffffffffffffffffffffffffffff021916908373ffffffffffffffffffffffffffffffffffffffff16021790555084600060038110151561145957fe5b60200201518760050160010160146101000a81548160ff02191690831515021790555084600160038110151561148b57fe5b60200201518760050160010160156101000a81548160ff0219169083151502179055508460026003811015156114bd57fe5b60200201518760050160010160166101000a81548160ff021916908315150217905550836000600f811015156114ef57fe5b602002015187600e0160010181905550836001600f8110151561150e57fe5b60200201518760070160000181905550836002600f8110151561152d57fe5b60200201518760070160040181905550836003600f8110151561154c57fe5b60200201518760070160060181905550836004600f8110151561156b57fe5b60200201518760070160010181905550836005600f8110151561158a57fe5b60200201518760070160030181905550836006600f811015156115a957fe5b60200201518760120160050181905550836007600f811015156115c857fe5b60200201518760120160030181905550836008600f811015156115e757fe5b60200201518760120160040181905550836009600f8110151561160657fe5b6020020151600281111561161657fe5b8760120160000160006101000a81548160ff0219169083600281111561163857fe5b021790555083600a600f8110151561164c57fe5b6020020151876012016002018190555083600b600f8110151561166b57fe5b6020020151876012016001018190555083600c600f8110151561168a57fe5b6020020151876000016003018190555083600d600f811015156116a957fe5b6020020151876000016002018190555083600e600f811015156116c857fe5b602002015187600001600401819055508260006001811015156116e757fe5b602002015187600e0160030160006101000a81548160ff021916908360ff160217905550600190509695505050505050565b60008160050160010160149054906101000a900460ff161561173e5760009050611808565b8160050160010160159054906101000a900460ff1615801561176857506117678260120161190a565b5b156117765760019050611808565b61178282600e01611a6e565b158015611797575061179682601201611ab5565b5b80156117f557508160050160000160009054906101000a900473ffffffffffffffffffffffffffffffffffffffff1673ffffffffffffffffffffffffffffffffffffffff163373ffffffffffffffffffffffffffffffffffffffff16145b156118035760019050611808565b600090505b919050565b6000806000836001015411156118935782600101549050600083600101819055508260000160009054906101000a900473ffffffffffffffffffffffffffffffffffffffff1673ffffffffffffffffffffffffffffffffffffffff166108fc829081150290604051600060405180830381858888f19350505050151561189257600080fd5b5b6001915050919050565b60008082848115156118ab57fe5b0490508091505092915050565b60008282111515156118c957600080fd5b818303905092915050565b600080828402905060008414806118f557508284828115156118f257fe5b04145b151561190057600080fd5b8091505092915050565b600061191582611ad1565b61191e83611af5565b119050919050565b6000808260030154905060008111156119a357600083600301819055508260020160009054906101000a900473ffffffffffffffffffffffffffffffffffffffff1673ffffffffffffffffffffffffffffffffffffffff166108fc829081150290604051600060405180830381858888f1935050505091506119a8565b600191505b50919050565b600080826006015490506000811115611a2b57600083600601819055508260050160009054906101000a900473ffffffffffffffffffffffffffffffffffffffff1673ffffffffffffffffffffffffffffffffffffffff166108fc829081150290604051600060405180830381858888f193505050509150611a30565b600191505b50919050565b6000611a4182611b18565b8310905092915050565b6000808273ffffffffffffffffffffffffffffffffffffffff1614159050919050565b6000808260000160009054906101000a900473ffffffffffffffffffffffffffffffffffffffff1673ffffffffffffffffffffffffffffffffffffffff1614159050919050565b6000611ac082611b24565b611ac983611af5565b109050919050565b6000611aee826002015483600101546111f590919063ffffffff16565b9050919050565b6000611b118260000160009054906101000a900460ff16611b48565b9050919050565b60008145039050919050565b6000611b41826003015483600101546118b890919063ffffffff16565b9050919050565b6000600280811115611b5657fe5b826002811115611b6257fe5b1415611b7057429050611b9c565b60016002811115611b7d57fe5b826002811115611b8957fe5b1415611b9757439050611b9c565b600080fd5b919050565b60c0604051908101604052806006905b600073ffffffffffffffffffffffffffffffffffffffff16815260200190600190039081611bb15790505090565b6060604051908101604052806003905b60001515815260200190600190039081611bef5790505090565b6101e060405190810160405280600f905b6000815260200190600190039081611c1a5790505090565b6020604051908101604052806001905b600060ff16815260200190600190039081611c425790505090565b60c0604051908101604052806006905b60001515815260200190600190039081611c6d5790505090565b61068060405190810160405280611c9c611d63565b8152602001611ca9611daf565b8152602001611cb6611e11565b8152602001611cc3611e7b565b8152602001611cd0611ebd565b8152602001611cdd611eff565b81525090565b828054600181600116156101000203166002900490600052602060002090601f016020900481019282601f10611d2457805160ff1916838001178555611d52565b82800160010185558215611d52579182015b82811115611d51578251825591602001919060010190611d36565b5b509050611d5f9190611f41565b5090565b60a060405190810160405280600073ffffffffffffffffffffffffffffffffffffffff168152602001611d94611f66565b81526020016000815260200160008152602001600081525090565b60a060405190810160405280600073ffffffffffffffffffffffffffffffffffffffff168152602001600073ffffffffffffffffffffffffffffffffffffffff1681526020016000151581526020016000151581526020016000151581525090565b60e0604051908101604052806000815260200160008152602001600073ffffffffffffffffffffffffffffffffffffffff1681526020016000815260200160008152602001600073ffffffffffffffffffffffffffffffffffffffff168152602001600081525090565b608060405190810160405280600073ffffffffffffffffffffffffffffffffffffffff1681526020016000815260200160008152602001600060ff1681525090565b60c06040519081016040528060006002811115611ed657fe5b815260200160008152602001600081526020016000815260200160008152602001600081525090565b61032060405190810160405280611f14611f7a565b8152602001611f21611fb8565b8152602001611f2e611fe2565b8152602001611f3b61200b565b81525090565b611f6391905b80821115611f5f576000816000905550600101611f47565b5090565b90565b602060405190810160405280600081525090565b60c0604051908101604052806006905b600073ffffffffffffffffffffffffffffffffffffffff16815260200190600190039081611f8a5790505090565b6060604051908101604052806003905b60001515815260200190600190039081611fc85790505090565b6101e060405190810160405280600f905b6000815260200190600190039081611ff35790505090565b6020604051908101604052806001905b600060ff1681526020019060019003908161201b57905050905600a165627a7a723058209911117f65e31521da409c383f02ceb26ce9d9e51074371bd3c1bda47ff613520029",
  "source": "pragma solidity ^0.4.17;\n\nimport \"contracts/Library/ClaimLib.sol\";\nimport \"contracts/Library/ExecutionLib.sol\";\nimport \"contracts/Library/PaymentLib.sol\";\nimport \"contracts/Library/RequestMetaLib.sol\";\nimport \"contracts/Library/RequestScheduleLib.sol\";\n\nimport \"contracts/Library/MathLib.sol\";\nimport \"contracts/zeppelin/SafeMath.sol\";\n\nlibrary RequestLib {\n    using ExecutionLib for ExecutionLib.ExecutionData;\n    using RequestScheduleLib for RequestScheduleLib.ExecutionWindow;\n    using ClaimLib for ClaimLib.ClaimData;\n    using RequestMetaLib for RequestMetaLib.RequestMeta;\n    using PaymentLib for PaymentLib.PaymentData;\n    using SafeMath for uint;\n\n    /*\n     *  This struct exists to circumvent an issue with returning multiple\n     *  values from a library function.  I found through experimentation that I\n     *  could not return more than 4 things from a library function, even if I\n     *  put them in arrays. - Piper\n     */\n    struct SerializedRequest {\n        address[6] addressValues;\n        bool[3] boolValues;\n        uint[15] uintValues;\n        uint8[1] uint8Values;\n    }\n\n    struct Request {\n        ExecutionLib.ExecutionData txnData;\n        RequestMetaLib.RequestMeta meta;\n        PaymentLib.PaymentData paymentData;\n        ClaimLib.ClaimData claimData;\n        RequestScheduleLib.ExecutionWindow schedule;\n        SerializedRequest serializedValues;\n    }\n\n    enum AbortReason {\n        WasCancelled,       //0\n        AlreadyCalled,      //1\n        BeforeCallWindow,   //2\n        AfterCallWindow,    //3\n        ReservedForClaimer, //4\n        InsufficientGas,    //5\n        MismatchGasPrice    //6\n    }\n\n    event Cancelled(uint rewardPayment, uint measuredGasConsumption);\n    event Claimed();\n    event Aborted(uint8 reason);\n    event Executed(uint payment, uint donation, uint measuredGasConsumption);\n\n    /**\n     * @dev Validate the initialization parameters for a transaction request.\n     * Public view function\n     */\n    function validate(\n        address[4] addressArgs,\n        uint[11] uintArgs,\n        bytes callData,\n        uint endowment\n    ) \n        public view returns (bool[6] isValid)\n    {\n        Request memory request;\n\n        // callData is special.\n        request.txnData.callData = callData;\n\n        // Address values\n        request.claimData.claimedBy = 0x0;\n        request.meta.createdBy = addressArgs[0];\n        request.meta.owner = addressArgs[1];\n        request.paymentData.donationBenefactor = addressArgs[2];\n        request.paymentData.donationBenefactor = 0x0;\n        request.txnData.toAddress = addressArgs[3];\n\n        // Boolean values\n        request.meta.isCancelled = false;\n        request.meta.wasCalled = false;\n        request.meta.wasSuccessful = false;\n\n        // UInt values\n        request.claimData.claimDeposit = 0;\n        request.paymentData.gasPrice = tx.gasprice;\n        request.paymentData.donation = uintArgs[0];\n        request.paymentData.payment = uintArgs[1];\n        request.paymentData.donationOwed = 0;\n        request.paymentData.paymentOwed = 0;\n        request.schedule.claimWindowSize = uintArgs[2];\n        request.schedule.freezePeriod = uintArgs[3];\n        request.schedule.reservedWindowSize = uintArgs[4];\n        // This must be capped at 1 or it throws an exception.\n        request.schedule.temporalUnit = RequestScheduleLib.TemporalUnit(MathLib.min(uintArgs[5], 2));\n        request.schedule.windowSize = uintArgs[6];\n        request.schedule.windowStart = uintArgs[7];\n        request.txnData.callGas = uintArgs[8];\n        request.txnData.callValue = uintArgs[9];\n\n        // Uint8 values\n        request.claimData.paymentModifier = 0;\n\n        // The order of these errors matters as it determines which\n        // ValidationError event codes are logged when validation fails.\n        isValid[0] = PaymentLib.validateEndowment(\n            endowment,\n            request.paymentData.payment,\n            request.paymentData.donation,\n            request.txnData.callGas,\n            request.txnData.callValue,\n            request.txnData.gasPrice,\n            _EXECUTION_GAS_OVERHEAD\n        );\n        isValid[1] = RequestScheduleLib.validateReservedWindowSize(\n            request.schedule.reservedWindowSize,\n            request.schedule.windowSize\n        );\n        isValid[2] = RequestScheduleLib.validateTemporalUnit(uintArgs[5]);\n        isValid[3] = RequestScheduleLib.validateWindowStart(\n            request.schedule.temporalUnit,\n            request.schedule.freezePeriod,\n            request.schedule.windowStart\n        );\n        isValid[4] = ExecutionLib.validateCallGas(\n            request.txnData.callGas,\n            _EXECUTION_GAS_OVERHEAD\n        );\n        isValid[5] = ExecutionLib.validateToAddress(request.txnData.toAddress);\n\n        /// Automatically returns isValid\n    }\n\n    /*\n     *  Initialize a new Request.\n     */\n    function initialize(\n        Request storage self,\n        address[4] addressArgs,\n        uint[11] uintArgs,\n        bytes callData\n    ) \n        public returns (bool initialized)\n    {\n        address[6] memory addressValues = [\n            0x0,             // self.claimData.claimedBy\n            addressArgs[0],  // self.meta.createdBy\n            addressArgs[1],  // self.meta.owner\n            addressArgs[2],  // self.paymentData.donationBenefactor\n            0x0,             // self.paymentData.paymentBenefactor\n            addressArgs[3]   // self.txnData.toAddress\n        ];\n\n        bool[3] memory boolValues = [false, false, false];\n\n        uint[15] memory uintValues = [\n            0,               // self.claimData.claimDeposit\n            tx.gasprice,     // self.paymentData.gasPrice\n            uintArgs[0],     // self.paymentData.donation\n            0,               // self.paymentData.donationOwed\n            uintArgs[1],     // self.paymentData.payment\n            0,               // self.paymentData.paymentOwed\n            uintArgs[2],     // self.schedule.claimWindowSize\n            uintArgs[3],     // self.schedule.freezePeriod\n            uintArgs[4],     // self.schedule.reservedWindowSize\n            uintArgs[5],     // self.schedule.temporalUnit\n            uintArgs[6],     // self.schedule.windowSize\n            uintArgs[7],     // self.schedule.windowStart\n            uintArgs[8],     // self.txnData.callGas\n            uintArgs[9],     // self.txnData.callValue\n            uintArgs[10]     // self.txnData.gasPrice\n        ];\n\n        uint8[1] memory uint8Values = [\n            0\n        ];\n\n        deserialize(self, addressValues, boolValues, uintValues, uint8Values, callData);\n\n        initialized = true;\n    }\n\n    /*\n     *  Returns the entire data structure of the Request in a *serialized*\n     *  format.  This will be missing the `callData` which must be requested\n     *  separately\n     *\n     *  Parameter order is alphabetical by type, then namespace, then name\n     *\n     *  NOTE: This exists because of an issue I ran into related to returning\n     *  multiple values from a library function.  I found through\n     *  experimentation that I was unable to return more than 4 things, even if\n     *  I used the trick of returning arrays of items.\n     */\n    function serialize(Request storage self) \n        internal returns (bool serialized)\n    {\n        // Address values\n        self.serializedValues.addressValues[0] = self.claimData.claimedBy;\n        self.serializedValues.addressValues[1] = self.meta.createdBy;\n        self.serializedValues.addressValues[2] = self.meta.owner;\n        self.serializedValues.addressValues[3] = self.paymentData.donationBenefactor;\n        self.serializedValues.addressValues[4] = self.paymentData.paymentBenefactor;\n        self.serializedValues.addressValues[5] = self.txnData.toAddress;\n\n        // Boolean values\n        self.serializedValues.boolValues[0] = self.meta.isCancelled;\n        self.serializedValues.boolValues[1] = self.meta.wasCalled;\n        self.serializedValues.boolValues[2] = self.meta.wasSuccessful;\n\n        // UInt256 values\n        self.serializedValues.uintValues[0] = self.claimData.claimDeposit;\n        self.serializedValues.uintValues[1] = self.paymentData.gasPrice;\n        self.serializedValues.uintValues[2] = self.paymentData.donation;\n        self.serializedValues.uintValues[3] = self.paymentData.donationOwed;\n        self.serializedValues.uintValues[4] = self.paymentData.payment;\n        self.serializedValues.uintValues[5] = self.paymentData.paymentOwed;\n        self.serializedValues.uintValues[6] = self.schedule.claimWindowSize;\n        self.serializedValues.uintValues[7] = self.schedule.freezePeriod;\n        self.serializedValues.uintValues[8] = self.schedule.reservedWindowSize;\n        self.serializedValues.uintValues[9] = uint(self.schedule.temporalUnit);\n        self.serializedValues.uintValues[10] = self.schedule.windowSize;\n        self.serializedValues.uintValues[11] = self.schedule.windowStart;\n        self.serializedValues.uintValues[12] = self.txnData.callGas;\n        self.serializedValues.uintValues[13] = self.txnData.callValue;\n        self.serializedValues.uintValues[14] = self.txnData.gasPrice;\n\n        // Uint8 values\n        self.serializedValues.uint8Values[0] = self.claimData.paymentModifier;\n\n        serialized = true;\n    }\n\n    /*\n     *  Populates a Request object from the full output of `serialize`.\n     *\n     *  Parameter order is alphabetical by type, then namespace, then name.\n     */\n    function deserialize(\n        Request storage self,\n        address[6] addressValues,\n        bool[3] boolValues,\n        uint[15] uintValues,\n        uint8[1] uint8Values,\n        bytes callData\n    )\n        internal returns (bool deserialized)\n    {\n        // callData is special.\n        self.txnData.callData = callData;\n\n        // Address values\n        self.claimData.claimedBy = addressValues[0];\n        self.meta.createdBy = addressValues[1];\n        self.meta.owner = addressValues[2];\n        self.paymentData.donationBenefactor = addressValues[3];\n        self.paymentData.paymentBenefactor = addressValues[4];\n        self.txnData.toAddress = addressValues[5];\n\n        // Boolean values\n        self.meta.isCancelled = boolValues[0];\n        self.meta.wasCalled = boolValues[1];\n        self.meta.wasSuccessful = boolValues[2];\n\n        // UInt values\n        self.claimData.claimDeposit = uintValues[0];\n        self.paymentData.gasPrice = uintValues[1];\n        self.paymentData.donation = uintValues[2];\n        self.paymentData.donationOwed = uintValues[3];\n        self.paymentData.payment = uintValues[4];\n        self.paymentData.paymentOwed = uintValues[5];\n        self.schedule.claimWindowSize = uintValues[6];\n        self.schedule.freezePeriod = uintValues[7];\n        self.schedule.reservedWindowSize = uintValues[8];\n        self.schedule.temporalUnit = RequestScheduleLib.TemporalUnit(uintValues[9]);\n        self.schedule.windowSize = uintValues[10];\n        self.schedule.windowStart = uintValues[11];\n        self.txnData.callGas = uintValues[12];\n        self.txnData.callValue = uintValues[13];\n        self.txnData.gasPrice = uintValues[14];\n\n        // Uint8 values\n        self.claimData.paymentModifier = uint8Values[0];\n\n        deserialized = true;\n    }\n\n    function execute(Request storage self) \n        internal returns (bool)\n    {\n        /*\n         *  Execute the TransactionRequest\n         *\n         *  +---------------------+\n         *  | Phase 1: Validation |\n         *  +---------------------+\n         *\n         *  Must pass all of the following checks:\n         *\n         *  1. Not already called.\n         *  2. Not cancelled.\n         *  3. Not before the execution window.\n         *  4. Not after the execution window.\n         *  5. if (claimedBy == 0x0 or msg.sender == claimedBy):\n         *         - windowStart <= block.number\n         *         - block.number <= windowStart + windowSize\n         *     else if (msg.sender != claimedBy):\n         *         - windowStart + reservedWindowSize <= block.number\n         *         - block.number <= windowStart + windowSize\n         *     else:\n         *         - throw (should be impossible)\n         *  6. if (msg.sender != tx.origin):\n         *         - Verify stack can be increased by requiredStackDepth\n         *  7. msg.gas >= callGas\n         *\n         *  +--------------------+\n         *  | Phase 2: Execution |\n         *  +--------------------+\n         *\n         *  1. Mark as called (must be before actual execution to prevent\n         *     re-entrance.\n         *  2. Send Transaction and record success or failure.\n         *\n         *  +---------------------+\n         *  | Phase 3: Accounting |\n         *  +---------------------+\n         *\n         *  1. Calculate and send donation amount.\n         *  2. Calculate and send payment amount.\n         *  3. Send remaining ether back to owner.\n         *\n         */\n        uint startGas = msg.gas;\n\n        // +----------------------+\n        // | Begin: Authorization |\n        // +----------------------+\n\n        if (msg.gas < requiredExecutionGas(self).sub(_PRE_EXECUTION_GAS)) {\n            Aborted(uint8(AbortReason.InsufficientGas));\n            return false;\n        } else if (self.meta.wasCalled) {\n            Aborted(uint8(AbortReason.AlreadyCalled));\n            return false;\n        } else if (self.meta.isCancelled) {\n            Aborted(uint8(AbortReason.WasCancelled));\n            return false;\n        } else if (self.schedule.isBeforeWindow()) {\n            Aborted(uint8(AbortReason.BeforeCallWindow));\n            return false;\n        } else if (self.schedule.isAfterWindow()) {\n            Aborted(uint8(AbortReason.AfterCallWindow));\n            return false;\n        } else if (self.claimData.isClaimed() &&\n                   msg.sender != self.claimData.claimedBy &&\n                   self.schedule.inReservedWindow()) {\n            Aborted(uint8(AbortReason.ReservedForClaimer));\n            return false;\n        } else if (self.txnData.gasPrice != tx.gasprice) {\n            Aborted(uint8(AbortReason.MismatchGasPrice));\n            return false;\n        }\n\n        // +--------------------+\n        // | End: Authorization |\n        // +--------------------+\n        // +------------------+\n        // | Begin: Execution |\n        // +------------------+\n\n        /// Mark as being called before sending transaction to prevent re-entrance.\n        self.meta.wasCalled = true;\n\n        /// Send the transaction...\n        /// The transaction is allowed to fail and the caller will still get paid.\n        self.meta.wasSuccessful = self.txnData.sendTransaction();\n\n        // +----------------+\n        // | End: Execution |\n        // +----------------+\n        // +-------------------+\n        // | Begin: Accounting |\n        // +-------------------+\n\n        // Compute the donation amount\n        if (self.paymentData.hasBenefactor()) {\n            self.paymentData.donationOwed = self.paymentData.getDonation()\n                                                            .add(self.paymentData.donationOwed);\n        }\n\n        // record this so that we can log it later.\n        uint totalDonationPayment = self.paymentData.donationOwed;\n\n        // Send the donation.\n        self.paymentData.sendDonation();\n\n        // Compute the payment amount and who it should be sent do.\n        self.paymentData.paymentBenefactor = msg.sender;\n        if (self.claimData.isClaimed()) {\n            self.paymentData.paymentOwed = self.claimData.claimDeposit.add(self.paymentData.paymentOwed);\n            // need to zero out the claim deposit since it is now accounted for\n            // in the paymentOwed value.\n            self.claimData.claimDeposit = 0;\n            self.paymentData.paymentOwed = self.paymentData.getPaymentWithModifier(self.claimData.paymentModifier)\n                                                           .add(self.paymentData.paymentOwed);\n        } else {\n            self.paymentData.paymentOwed = self.paymentData.getPayment()\n                                                           .add(self.paymentData.paymentOwed);\n        }\n\n        // Record the amount of gas used by execution.\n        uint measuredGasConsumption = startGas.sub(msg.gas).add(_EXECUTE_EXTRA_GAS);\n\n        // // +----------------------------------------------------------------------+\n        // // | NOTE: All code after this must be accounted for by EXECUTE_EXTRA_GAS |\n        // // +----------------------------------------------------------------------+\n\n        // Add the gas reimbursment amount to the payment.\n        self.paymentData.paymentOwed = measuredGasConsumption.mul(tx.gasprice)\n                                                             .add(self.paymentData.paymentOwed);\n\n        // Log the two payment amounts.  Otherwise it is non-trivial to figure\n        // out how much was payed.\n        Executed(self.paymentData.paymentOwed,\n                 totalDonationPayment,\n                 measuredGasConsumption);\n    \n        // Send the payment.\n        // FIXME: NO MORE PUSHES FOR PAYMENTS, CLIENTS MUST CALL\n        self.paymentData.sendPayment();\n\n        // Send all extra ether back to the owner.\n        sendOwnerEther(self);\n\n        // +-----------------+\n        // | End: Accounting |\n        // +-----------------+\n        return true;\n    }\n\n\n    // This is the amount of gas that it takes to enter from the\n    // `TransactionRequest.execute()` contract into the `RequestLib.execute()`\n    // method at the point where the gas check happens.\n    uint private constant _PRE_EXECUTION_GAS = 25000;   // TODO is this number still accurate?\n\n    function PRE_EXECUTION_GAS()\n        public pure returns (uint)\n    {\n        return _PRE_EXECUTION_GAS;\n    }\n\n    function requiredExecutionGas(Request storage self) \n        public view returns (uint)\n    {\n        uint requiredGas = self.txnData.callGas.add(_EXECUTION_GAS_OVERHEAD);\n\n        // if (msg.sender != tx.origin) {\n        //     var stackCheckGas = ExecutionLib.GAS_PER_DEPTH()\n        //                                     .mul(self.txnData.requiredStackDepth);\n        //     requiredGas = requiredGas.add(stackCheckGas);\n        // }\n\n        return requiredGas;\n    }\n\n    /*\n     * The amount of gas needed to complete the execute method after\n     * the transaction has been sent.\n     */\n    uint private constant _EXECUTION_GAS_OVERHEAD = 180000; // TODO check accuracy of this number\n\n    function EXECUTION_GAS_OVERHEAD()\n        public pure returns (uint)\n    {\n        return _EXECUTION_GAS_OVERHEAD;\n    }\n\n    \n    /*\n     *  The amount of gas used by the portion of the `execute` function\n     *  that cannot be accounted for via gas tracking.\n     */\n    uint private constant  _EXECUTE_EXTRA_GAS = 90000; // Same... Doubled this from Piper's original - Logan\n\n    function EXECUTE_EXTRA_GAS() \n        public pure returns (uint)\n    {\n        return _EXECUTE_EXTRA_GAS;\n    }\n\n    /*\n     * @dev Performs the checks to see if a request can be cancelled.\n     *  Must satisfy the following conditions.\n     *\n     *  1. Not Cancelled\n     *  2. either:\n     *    * not wasCalled && afterExecutionWindow\n     *    * not claimed && beforeFreezeWindow && msg.sender == owner\n     */\n    function isCancellable(Request storage self) \n        internal returns (bool)\n    {\n        if (self.meta.isCancelled) {\n            // already cancelled!\n            return false;\n        } else if (!self.meta.wasCalled && self.schedule.isAfterWindow()) {\n            // not called but after the window\n            return true;\n        } else if (!self.claimData.isClaimed() && self.schedule.isBeforeFreeze() && msg.sender == self.meta.owner) {\n            // not claimed and before freezePeriod and owner is cancelling\n            return true;\n        } else {\n            // otherwise cannot cancel\n            return false;\n        }\n    }\n\n    /*\n     *  Constant value to account for the gas usage that cannot be accounted\n     *  for using gas-tracking within the `cancel` function.\n     */\n    uint private constant _CANCEL_EXTRA_GAS = 85000; // Check accuracy\n\n    function CANCEL_EXTRA_GAS() \n        public pure returns (uint)\n    {\n        return _CANCEL_EXTRA_GAS;\n    }\n\n    /*\n     *  Cancel the transaction request, attempting to send all appropriate\n     *  refunds.  To incentivise cancellation by other parties, a small reward\n     *  payment is issued to the party that cancels the request if they are not\n     *  the owner.\n     */\n    function cancel(Request storage self) \n        public returns (bool)\n    {\n        uint startGas = msg.gas;\n        uint rewardPayment;\n        uint measuredGasConsumption;\n\n        /// Checks if this transactionRequest can be cancelled.\n        require( isCancellable(self) );\n\n        /// Set here to prevent re-entrance attacks.\n        self.meta.isCancelled = true;\n\n        /// Refund the claim deposit (if there is one)\n        require( self.claimData.refundDeposit() );\n\n        /// Send a reward to the canceller if they are not the owner.\n        /// This is to incentivize the cancelling of expired transactionRequests.\n        // This also guarantees that it is being cancelled after the call window\n        // since the `isCancellable()` function checks this.\n        if (msg.sender != self.meta.owner) {\n            /// Create the rewardBenefactor\n            address rewardBenefactor = msg.sender;\n            /// Create the rewardOwed variable, it is paymentOwed and one-hundredth\n            /// of the payment.\n            uint rewardOwed = self.paymentData.paymentOwed.add(\n                self.paymentData.payment.div(100)\n            );\n\n            /// Calc the amount of gas caller used to call this function.\n            measuredGasConsumption = startGas.sub(msg.gas).add(_CANCEL_EXTRA_GAS);\n            /// Add their gas fees to the reward.\n            rewardOwed = measuredGasConsumption.mul(tx.gasprice).add(rewardOwed);\n\n            /// Take note of the rewardPayment to log it.\n            rewardPayment = rewardOwed;\n\n            /// Transfers the rewardPayment.\n            if (rewardOwed > 0) { // ? - will it ever not be above zero?\n                self.paymentData.paymentOwed = 0;\n                rewardBenefactor.transfer(rewardOwed);\n            }\n        }\n\n        /// Logs are our friends.\n        Cancelled(rewardPayment, measuredGasConsumption);\n\n        // send the remaining ether to the owner.\n        // return sendOwnerEther(self);\n        return true;\n    }\n\n    /*\n     * @dev Performs the checks to verify that a request is claimable.\n     * @param self The Request object.\n     */\n    function isClaimable(Request storage self) \n        internal view returns (bool)\n    {\n        /// Require not claimed and not cancelled.\n        require( !self.claimData.isClaimed() );\n        require( !self.meta.isCancelled );\n\n        // Require that it's in the claim window and the value sent is over the min deposit.\n        require( self.schedule.inClaimWindow() );\n        require( msg.value >= ClaimLib.requiredDeposit(self.paymentData.payment) ); // requiredDeposit is * 2\n        return true;\n    }\n\n    /*\n     * @dev Claims the request.\n     * @param self The Request object.\n     * Payable because it requires the sender to send enough ether to cover the claimDeposit.\n     */\n    function claim(Request storage self) \n        internal returns (bool claimed)\n    {\n        require( isClaimable(self) );\n\n        self.claimData.claim(self.schedule.computePaymentModifier());\n        Claimed();\n        claimed = true;\n    }\n\n    /*\n     * @dev Refund claimer deposit.\n     */\n    function refundClaimDeposit(Request storage self)\n        public\n    {\n        assert( self.meta.isCancelled || self.schedule.isAfterWindow() );\n        assert( self.claimData.refundDeposit() );\n    }\n\n    /*\n     * Send donation\n     */\n    function sendDonation(Request storage self) \n        public returns (bool)\n    {\n        if (self.schedule.isAfterWindow()) {\n            return self.paymentData.sendDonation();\n        }\n        return false;\n    }\n\n    /*\n     * Send payment\n     */\n    function sendPayment(Request storage self) \n        public returns (bool)\n    {\n        /// check wasCalled\n        if (self.schedule.isAfterWindow()) {\n            return self.paymentData.sendPayment();\n        }\n        return false;\n    }\n\n    function sendOwnerEther(Request storage self) \n        internal returns (bool)\n    {\n        if ( self.meta.isCancelled || self.schedule.isAfterWindow() ) {\n            uint ownerRefund = this.balance.sub(self.claimData.claimDeposit)\n                                            .sub(self.paymentData.paymentOwed)\n                                            .sub(self.paymentData.donationOwed);\n            self.meta.owner.transfer(ownerRefund);\n            return true;\n        }\n        return false;\n    }\n}\n",
  "sourcePath": "contracts/Library/RequestLib.sol",
  "compiler": {
    "name": "solc",
    "version": "0.4.18+commit.9cf6e910.Emscripten.clang"
  },
  "schemaVersion": "1.0.1",
  "updatedAt": "2017-12-20T04:58:39.602Z"
}